:100000000C9462000C948A000C948A000C948A0070
:100010000C948A000C948A000C948A000C948A0038
:100020000C948A000C948A000C948A000C948A0028
:100030000C948A000C948A000C948A000C948A0018
:100040000C94EC010C948A000C945C020C94360223
:100050000C948A000C948A000C948A000C948A00F8
:100060000C948A000C948A000000000025002800EF
:100070002B0000000000240027002A0000000000E0
:1000800023002600290004040404040404040202DA
:100090000202020203030303030301020408102007
:1000A0004080010204081020010204081020000012
:1000B0000008000201000003040700000000000027
:1000C0000000830311241FBECFEFD8E0DEBFCDBFF9
:1000D00011E0A0E0B1E0E0ECFAE002C005900D9282
:1000E000AC32B107D9F721E0ACE2B1E001C01D921A
:1000F000A83DB207E1F710E0C2E6D0E004C02197C6
:10010000FE010E945305C136D107C9F70E948E0235
:100110000C945E050C940000E2EBF0E08491EEE9B3
:10012000F0E09491EAE8F0E0E491EE23B9F188235D
:1001300039F1833091F038F48130A9F0823001F543
:1001400084B58F7D12C0873091F08830A1F0843063
:10015000B9F4809180008F7D03C0809180008F77FB
:10016000809380000DC084B58F7784BD09C08091D5
:10017000B0008F7703C08091B0008F7D8093B00076
:10018000F0E0EE0FFF1FE458FF4FA591B491EC9102
:10019000E92381E090E021F480E0089580E090E0A0
:1001A0000895CF92DF92EF92FF920F931F93CF9318
:1001B000DF936C017A018B01C0E0D0E0CE15DF0542
:1001C00089F0D8016D918D01D601ED91FC910190DE
:1001D000F081E02DC6010995892B11F47E0102C042
:1001E0002196ECCFC701DF91CF911F910F91FF9026
:1001F000EF90DF90CF900895FC01918D828D98173C
:1002000061F0828DDF01A80FB11D5D968C91928DFA
:100210009F5F9F73928F90E008958FEF9FEF0895F7
:10022000FC01918D828D981731F0828DE80FF11DC0
:10023000858D90E008958FEF9FEF0895FC01918DDB
:10024000228D892F90E0805C9F4F821B91098F73D4
:10025000992708958BE391E00E941E0121E0892BEC
:1002600009F420E0822F0895FC01848DDF01A80F9E
:10027000B11DA35ABF4F2C91848D90E001968F73CE
:100280009927848FA689B7892C93A089B1898C91ED
:1002900080648C93938D848D981306C00288F389B3
:1002A000E02D80818F7D80830895EF92FF920F93E0
:1002B0001F93CF93DF93EC0181E0888F9B8D8C8D12
:1002C000981305C0E889F989808185FD24C0F62E40
:1002D0000B8D10E00F5F1F4F0F731127E02E8C8DD9
:1002E000E8120CC00FB607FCFACFE889F9898081C3
:1002F00085FFF5CFCE010E943401F1CF8B8DFE0139
:10030000E80FF11DE35AFF4FF0820B8FEA89FB895A
:100310008081806207C0EE89FF896083E889F9895E
:1003200080818064808381E090E0DF91CF911F9194
:100330000F91FF90EF900895CF93DF93EC01888D9C
:100340008823C9F0EA89FB89808185FD05C0A889D9
:10035000B9898C9186FD0FC00FB607FCF5CF80815F
:1003600085FFF2CFA889B9898C9185FFEDCFCE01A9
:100370000E943401E7CFDF91CF91089580E090E0B3
:10038000892B29F00E942A0181110C940000089504
:10039000CF93DF93009779F0FC0101900020E9F7FB
:1003A0003197AF01481B590BBC018BE391E00E94D0
:1003B000D100EC0102C0C0E0D0E042E050E060E1DA
:1003C00071E08BE391E00E94D1008C0F9D1FDF91C3
:1003D000CF9108950E9459051F920F920FB60F9268
:1003E00011242F933F938F939F93AF93BF9380914B
:1003F000370190913801A0913901B0913A013091C3
:10040000360123E0230F2D3720F40196A11DB11DE5
:1004100005C026E8230F0296A11DB11D20933601C9
:100420008093370190933801A0933901B0933A013A
:100430008091320190913301A0913401B091350146
:100440000196A11DB11D8093320190933301A093B9
:100450003401B0933501BF91AF919F918F913F913E
:100460002F910F900FBE0F901F9018951F920F9213
:100470000FB60F9211242F933F934F935F936F9377
:100480007F938F939F93AF93BF93EF93FF938BE3F0
:1004900091E00E943401FF91EF91BF91AF919F9144
:1004A0008F917F916F915F914F913F912F910F901D
:1004B0000FBE0F901F9018951F920F920FB60F92BC
:1004C00011242F938F939F93EF93FF93E0914B0110
:1004D000F0914C018081E0915101F091520182FD37
:1004E00012C09081809154018F5F8F7320915501CC
:1004F000821751F0E0915401F0E0E55CFE4F958FDA
:100500008093540101C08081FF91EF919F918F9161
:100510002F910F900FBE0F901F901895789484B56F
:10052000826084BD84B5816084BD85B5826085BDEF
:1005300085B5816085BD80916E00816080936E007D
:10054000109281008091810082608093810080916F
:100550008100816080938100809180008160809320
:1005600080008091B10084608093B1008091B000E0
:1005700081608093B00080917A00846080937A00DB
:1005800080917A00826080937A0080917A00816005
:1005900080937A0080917A00806880937A0010922C
:1005A000C100EEE9F0E02491EAE8F0E084918823CC
:1005B000C1F090E0880F991FFC01EE58FF4FC591E4
:1005C000D491FC01E859FF4FA591B4919FB7F894DD
:1005D0008881E22FE0958E2388838C91E823EC9329
:1005E0009FBFE0914B01F0914C0182E08083E0914C
:1005F0004701F09148011082E0914901F0914A01D0
:100600008FEC808310925301E0914F01F0915001E3
:1006100086E08083E0914D01F0914E018081806100
:100620008083E0914D01F0914E018081886080834C
:10063000E0914D01F0914E01808180688083E091CE
:100640004D01F0914E0180818F7D8083C0E40E9436
:100650008C00892B91F00E948C00892B29F083E17A
:1006600091E00E94C801F7CF809130019091310153
:1006700001969093310180933001C0937C0080916A
:100680007A00806480937A0080917A0086FDFCCFA6
:10069000609178008091790070E0782B70932F0141
:1006A00060932E01072E000C880B990B0E945A04B0
:1006B00020E030E446E654E40E94B00320E030E05D
:1006C0004CE852E40E94E6040E94220470932D013B
:1006D00060932C01633171051CF48BE191E00EC035
:1006E000653371051CF483E191E008C0673471053E
:1006F0001CF480E291E002C086E291E00E94C80111
:100700000E94BE01A4CFEBE3F1E01382128288EED7
:1007100093E0A0E0B0E084839583A683B78384E070
:1007200091E09183808385EC90E09587848784ECC9
:1007300090E09787868780EC90E0918B808B81ECAE
:1007400090E0938B828B82EC90E0958B848B86EC8F
:1007500090E0978B868B118E128E138E148E0895D7
:100760000E94C4030C94AC040E94A50458F00E949B
:100770009E0440F029F45F3F29F00C949504511138
:100780000C94E0040C949B040E94BD0468F399232C
:10079000B1F3552391F3951B550BBB27AA2762177D
:1007A0007307840738F09F5F5F4F220F331F441F8A
:1007B000AA1FA9F335D00E2E3AF0E0E832D09150BE
:1007C0005040E695001CCAF72BD0FE2F29D0660FAB
:1007D000771F881FBB1F261737074807AB07B0E8EE
:1007E00009F0BB0B802DBF01FF2793585F4F3AF0F4
:1007F0009E3F510578F00C9495040C94E0045F3F03
:10080000E4F3983ED4F3869577956795B795F79579
:100810009F5FC9F7880F911D9695879597F9089561
:10082000E1E0660F771F881FBB1F621773078407FD
:10083000BA0720F0621B730B840BBA0BEE1F88F70C
:10084000E09508950E9429046894B1110C94E00485
:1008500008950E94C50488F09F5798F0B92F9927F2
:10086000B751B0F0E1F0660F771F881F991F1AF09B
:10087000BA95C9F714C0B13091F00E94DF04B1E01D
:1008800008950C94DF04672F782F8827B85F39F01C
:10089000B93FCCF3869577956795B395D9F73EF434
:1008A00090958095709561957F4F8F4F9F4F0895DC
:1008B000E89409C097FB3EF49095809570956195FA
:1008C0007F4F8F4F9F4F9923A9F0F92F96E9BB27B0
:1008D0009395F695879577956795B795F111F8CF2C
:1008E000FAF4BB0F11F460FF1BC06F5F7F4F8F4F97
:1008F0009F4F16C0882311F096E911C0772321F08D
:100900009EE8872F762F05C0662371F096E8862F24
:1009100070E060E02AF09A95660F771F881FDAF77B
:10092000880F9695879597F9089597F99F6780E8BE
:1009300070E060E008959FEF80EC089500240A9431
:100940001616170618060906089500240A941216AA
:100950001306140605060895092E0394000C11F4DD
:10096000882352F0BB0F40F4BF2B11F460FF04C08A
:100970006F5F7F4F8F4F9F4F089557FD9058440FE3
:10098000551F59F05F3F71F04795880F97FB991FEE
:1009900061F09F3F79F087950895121613061406AB
:1009A000551FF2CF4695F1DF08C016161706180638
:1009B000991FF1CF86957105610508940895E89413
:1009C000BB2766277727CB0197F908950E94F90482
:1009D0000C94AC040E949E0438F00E94A50420F000
:1009E000952311F00C9495040C949B0411240C9401
:1009F000E0040E94BD0470F3959FC1F3950F50E091
:100A0000551F629FF001729FBB27F00DB11D639FC0
:100A1000AA27F00DB11DAA1F649F6627B00DA11D66
:100A2000661F829F2227B00DA11D621F739FB00D0C
:100A3000A11D621F839FA00D611D221F749F33277C
:100A4000A00D611D231F849F600D211D822F762F15
:100A50006A2F11249F5750409AF0F1F088234AF0F2
:100A6000EE0FFF1FBB1F661F771F881F915050405E
:100A7000A9F79E3F510580F00C9495040C94E00476
:100A80005F3FE4F3983ED4F3869577956795B795E5
:100A9000F795E7959F5FC1F7FE2B880F911D9695FF
:100AA000879597F90895EE0FFF1F0590F491E02DBB
:100AB000099481E090E0F8940C945E05F894FFCFDF
:100AC000000000005501D1001E01FC0010019C0136
:100AD0000D0A00666F7277617264006C656674005F
:0C0AE00072696768740077616974000037
:00000001FF
